:0200000460009A
:100000004643464200000156000000000103030081
:1000100000000000000000000000000000000000E0
:1000200000000000000000000000000000000000D0
:1000300000000000000000000000000000000000C0
:1000400000000000010408000000000000000000A3
:100050000000800000000000000000000000000020
:100060000000000000000000000000000000000090
:100070000000000000000000000000000000000080
:10008000EB04180A063204260000000000000000FD
:10009000050404240000000000000000000000002F
:1000A0000000000000000000000000000000000050
:1000B0000604000000000000000000000000000036
:1000C0000000000000000000000000000000000030
:1000D00020041808000000000000000000000000DC
:1000E0000000000000000000000000000000000010
:1000F0000000000000000000000000000000000000
:10010000D8041808000000000000000000000000F3
:100110000204180804200000000000000000000095
:1001200000000000000000000000000000000000CF
:10013000600400000000000000000000000000005B
:1001400000000000000000000000000000000000AF
:10015000000000000000000000000000000000009F
:10016000000000000000000000000000000000008F
:10017000000000000000000000000000000000007F
:10018000000000000000000000000000000000006F
:10019000000000000000000000000000000000005F
:1001A000000000000000000000000000000000004F
:1001B000000000000000000000000000000000003F
:1001C000000100000010000001000000000000001D
:1001D000000001000000000000000000000000001E
:1001E000000000000000000000000000000000000F
:1001F00000000000000000000000000000000000FF
:10020000FFFFFFFFFFFFFFFFFFFFFFFFFFFFFFFFFE
:10021000FFFFFFFFFFFFFFFFFFFFFFFFFFFFFFFFEE
:10100000D10020434D1600600000000000000000E9
:10101000201000600010006000400160000000002F
:1010200000000060004C010000000000FFFFFFFF17
:10103000FFFFFFFFFFFFFFFFFFFFFFFFFFFFFFFFC0
:10104000FFFFFFFFFFFFFFFFFFFFFFFFFFFFFFFFB0
:10105000FFFFFFFFFFFFFFFFFFFFFFFFFFFFFFFFA0
:10106000FFFFFFFFFFFFFFFFFFFFFFFFFFFFFFFF90
:10140000814205D051F8043B40F8043B8242F9D8B0
:10141000704700BF044A05494FF0000342F8043BFF
:101420009142FBD8704700BFC03A0020C041002065
:101430002DE98848BFF34F8F00BF00BF00BF00BF3A
:1014400000F000FA684B0822C3F8542100BF00BF27
:1014500000BF00BF00BF00BF00BF00BF00BF00BF94
:1014600000BF00BF00BF00BF00BF00BF5F4A6049B0
:101470006048FFF7C5FF604A60496148FFF7C0FF59
:10148000604CFFF7C7FF4FF470004FF0E0210023DE
:101490005D4AC1F8880D44F823200133B02BFAD1FE
:1014A0005A4B80215A4A03F8011B9342FBD14FF05B
:1014B000E0254D4E4FF08039DFF884B1DFF884A18C
:1014C0004FF0FF31C5F8084D0027C6F80491C6F863
:1014D00000B1C6F8F490C6F8F0A0D5F8243DDFF8C6
:1014E000688143F4E0234B4AC5F8243DD8F81C300A
:1014F00023F07F0343F04003C8F81C30D8F82430B1
:1015000023F07F0343F04003C8F824309166D1668E
:101510001167516700F09EF93F4B4049A363404B70
:10152000E36363236B610323AF612B613D4BC5F81C
:10153000203DD5F8FC3D43F08073C5F8FC3D3A4BA7
:101540001A6842F001021A605B680B6000F0CCFB85
:10155000C6F804913548C6F800B1C6F8F490C6F84C
:10156000F0A000F031FDD8F86C10314B314A41F455
:101570004051C8F86C101F60C3F80871C3F81871A7
:10158000C3F82871C3F83871936BDB0708D442F6AF
:101590001563294951651365936B43F00103936308
:1015A000244A264C936843F00113936000F0DAF963
:1015B00000F01EF900F014FD00F0C4FB00F044F947
:1015C0002368132BFCD900F055FC2368B3F5967FF4
:1015D000FBD300F03DF900F039F900F0FDFC00F01C
:1015E000F7FC30BFFDE700BF00800D40A8DF000022
:1015F0000022006000000000C03A0020AC01016041
:1016000000000020003800207966000000E400E0BF
:10161000A0E400E000C00A40AD5700006441002093
:10162000B157000000002020001000E00046C32356
:101630000040084000400D400000C05668410020B6
:101640001B1018200C0D111300C00F40054B4FF458
:101650002A01054A05485A641864054A9963954663
:10166000FFF7E6FE00C00A40AFAAAAAA07002000C2
:101670000000072043690A4A03EB011010B4037A03
:10168000084C02EB0313D3E901321460C2681A60FC
:1016900003690BB142691A605DF8044B704700BFE3
:1016A000F013002061F801004369027E03EB02128F
:1016B00092F808C08C451CD01A7AFF2A19D09142A2
:1016C00010B5044616D01A7EFF2A06D00121D3E9B0
:1016D000002312681A4201D1217610BD064B052263
:1016E000204603EB0C135B681A60FFF7C3FF2176FB
:1016F000F3E770470021EAE7F013002043690A4A44
:1017000003EB011010B490F82830084C02EB0313DF
:10171000D3E901321460C26A1A60036B0BB1426BE9
:101720001A605DF8044B7047F013002061F8010067
:101730004369427E03EB021292F828C08C451ED00A
:1017400093F82820FF2A1AD0914210B5044617D0EA
:1017500093F83820FF2A06D00121D3E9002312682C
:101760001A4201D1617610BD064B0522204603EBDB
:101770000C135B681A60FFF7C1FF6176F3E77047EF
:101780000021EAE7F0130020164942698B6B23F42D
:101790007C0343F4802370B58B630446124DD2E979
:1017A00000130A681A4303690A60022200211A61C1
:1017B0000E4A19619A6401225A629D624FF43035D3
:1017C000DD624FF001159E6C1E6519629D651A6100
:1017D000017EFFF74FFF617E2046BDE87040FFF7B6
:1017E0008DBF00BF00C00F40B80B05053B3728195F
:1017F000104BA020104AD96E41F4403110B4D96684
:1018000040F23764D96E41F44071D96654649064F3
:10181000936C1B06FCD4094A40F23761A023516443
:101820009364936C13F08003FBD1054A13705DF849
:10183000044B704700C00F4000400C4000800C403B
:101840008D410020704700BF704700BF704700BF48
:1018500000BF704710B44FF0E0230021102431483E
:10186000C3F8941DC3F89C4D1124C3F8A00D2E4855
:10187000C3F89C4D1224C3F8A00D2C48C3F89C4D0E
:101880002B4AC3F8A00D2B4C42F015022A48C3F88E
:101890009C4DC3F8A00D294C2948C3F89C4DC3F8B2
:1018A000A00D284CC3F89C2D2748284AC3F8A04D0A
:1018B000C3F89C0DC3F8A02D02F5A022244C0C32D5
:1018C0002448C3F89C4DC3F8A02D234AC3F89C0DAF
:1018D000224CC3F8A02D02F14062C3F89C4D204871
:1018E000C3F8A02D0C32C3F89C0DC3F8A02D00BF87
:1018F00000BF00BF00BF00BF0122C3F8942DBFF39B
:101900004F8FBFF36F8FC3F8501FBFF34F8FBFF3DD
:101910006F8FD3F8142D5DF8044B42F44032C3F8B6
:10192000142D70473F000010250008070900100023
:10193000C0410020130020002100020714000020F5
:1019400025000813090000101600202027000B13A3
:1019500017000040180000602F000B0719000070EE
:101960001A000080F0B5B84B1822B84E0120B84FCD
:1019700083B0C3F85C62B749C3F86072B64DC3F870
:101980006462A6F53046B54CC3F86862C3F86C5281
:10199000C3F87052C3F87452C3F8785248F20C7509
:1019A000DA661A675A679A67DA67C3F88020C3F85D
:1019B0008420C3F88820C1F82C03A94AC1F8300359
:1019C000C1F83403C1F83803C1F83C03C1F850032F
:1019D000A169A44B0A40A448A4491343A44AA361A3
:1019E000D4F8843043F00C03C4F884304FF0FF3453
:1019F000036843F00203036003682B404FF4005573
:101A00001A439C4B026044608A689B4C13409B4A7B
:101A100043F000538360C36823F07803C360036A14
:101A2000134023430362036A1340954A2343954CB2
:101A300043628262C2620022D1F8B83023F03F03D1
:101A400043F00103C0F8B830D1F8BC308E4923F020
:101A50003F0343F00103C0F8BC3040F2056302616C
:101A600005660467C0F88030456644670224C0F804
:101A70008430036823F0020303608161834B84494F
:101A8000C46143F8042B8B42FBD1774A136843F0BF
:101A900001031360136813F00103FBD17A4802219C
:101AA00040F2F564906140F29940D16140F26641A4
:101AB000C2F8004242F20144C2F810127549C2F85D
:101AC0002002C2F8301240F235417348C2F8344265
:101AD000C2F84012714CC2F8500242F20120704923
:101AE000C2F854120121C2F86042C2F864025E4892
:101AF000C2F8A030C2F8A430C2F8B0104369DA07C7
:101B0000FCD5012300244FF4803257494361C0F8CB
:101B1000A040C0F8A420C0F8B0304B69DB07FCD56A
:101B2000012300244FF400304F4A4B61C1F8A0401C
:101B3000C1F8A400C1F8B0305369DF07FCD5012318
:101B40000024584848495361C2F8A040C2F8A40094
:101B5000C2F8B0304B69DE07FCD5D1F8003145F64C
:101B60000D5221209BB24861934265D100244FF46D
:101B7000802201233C48C1F8A040C1F8A420C1F84C
:101B8000B0304369DD07FCD501234FF40004002188
:101B9000354A4361C0F8A040C0F8A410C0F8B03086
:101BA0005369DC07FCD501234FF400044FF4803067
:101BB0002D495361C2F8A040C2F8A400C2F8B03069
:101BC0004B69D807FCD501234FF400044FF40030D3
:101BD000254A4B61C1F8A040C1F8A400C1F8B0305B
:101BE0005369D907FCD501234FF400042D481E4941
:101BF0005361C2F8A040C2F8A400C2F8B0304B69EB
:101C0000DA07FCD5D1F8003145F60D5221209BB200
:101C10004861934250D008254FF400042249002027
:101C2000224B234A009015705A1A0123214822445E
:101C300000F0DAF903B0F0BD1E4B0022C3E9002228
:101C4000C3E9022203B0F0BD00801F40F9B00100DB
:101C5000F910010000841F40F970010000C00F401E
:101C6000FFFCFF1F000300A000402A4000802A4024
:101C70001200FFFFFF37F7004000008000FFF07CFC
:101C8000FF000F8363000200F05AF05A00422A401E
:101C900000432A409F041830EB06180A3806180A39
:101CA00006320126040003000000007000000070EE
:101CB0008E410020684000204FF400044FF4802241
:101CC00001230848C1F8A040C1F8A420C1F8B030F1
:101CD0004369DB07FCD5012310254FF08074436175
:101CE0009CE700BF00402A40F0B4154A40274FF45B
:101CF00080314FF480564FF400554FF4404443F286
:101D00004200136913F0020F0ED113F4005F0FD0DD
:101D100013F4805F0ED0002BF3DA13F4803F0BD165
:101D20005B060BD5F0BC7047946151619061E8E7A8
:101D30005561E6E75661E4E79161E2E75761E0E764
:101D400000800D403F4A03203F49F3EE095AD2F884
:101D500080304FF0000C9FED3D6A23F001039FEDB2
:101D60003C5A30B4C2F88030C2F89000D1F8E0108C
:101D7000384DCBB2384C39482B6007EE903A0B0DFA
:101D8000C1F30B21F8EEE77A06EE903A07EE101A4F
:101D9000334BB8EEC77A2160F8EEE66A314937EE88
:101DA000C66A37EEC55A76EEC76A77EEE57A26EE52
:101DB000266AC3ED006A25EE265AD2F8803067EE17
:101DC000A64AC0ED007AC6EE275A274885EE276A54
:101DD000C4EEA76A75EE875AFCEEE55A36EE076A3E
:101DE00015EE904ABCEEC66A43EA045376EE877A53
:101DF000C2F8803016EE103AD2F89041FCEEE77A45
:101E000001EA0341214317EE903AC2F89011C3F35F
:101E10000B03D2F890110B431449C2F89031D2F859
:101E2000803043F00203C2F88030114B80F840C08C
:101E3000C1F840314FF0E023012230BCC3F8082143
:101E4000704700BF00810D4000441F400000AA42BF
:101E50000000B4425441002050410020584100206D
:101E60005C4100200000FF0F00E400E0003800208B
:101E700061680000314B40F6617210B5C3F8202153
:101E800040F2044400F09CF82D4A2E49D2F88030EC
:101E90002D4843F00303C2F880302C4BC1F8604159
:101EA00002681A4203D1D1F8A8319A071BD0254AFB
:101EB0004FF00041244B5963D2F8403143F0020304
:101EC000C2F84031D2F840319B07FBD44FF40030C8
:101ED0004FF0E0211C4B4FF00042C1F88C0219205A
:101EE0009A6300F089F8184A4FF08040154C0021A1
:101EF00090630A20164B11604FF42072C4F8A801B9
:101F0000184600F075F84FF4800203464FF4810044
:101F100040F243111860C4F858311A640D4B0E4A50
:101F2000C4F84811C3F804224FF0E0224FF4003106
:101F30000123C2F80C11C4F8403110BD00800D40DF
:101F400000C00F4000002E4000900D40001C1E00FD
:101F50000000002000380020496A000008B50E4B40
:101F60001B6E9B0700D4FBBE72B60C4B00200C4AC4
:101F7000C3F8400103F160430A49A3F55F231164EC
:101F80009D46BFF34F8F4FF400130748074ADB69A4
:101F900002609B68984700BF00441F4000002E402D
:101FA00000C00A400300200000802020000012EB47
:101FB000F8B500BFF8BC08BC9E46704700000000A2
:101FC0005FF800F0B97100005FF800F03D5B0000C1
:101FD0005FF800F0ED5F00005FF800F0498C000052
:101FE0005FF800F0696500005FF800F0CD7A00004E
:101FF0005FF800F05D8A00005FF800F02D5E0000E1
:0820000045000000110400007E
:1020080080C00F400000000319000000100000000D
:10201800E8841F4001000000FF000000FF000000EE
:102028000000000000000000180000001000000080
:10203800E4841F4001000000FF000000FF000000D2
:1020480000000000000000001F0000001115000043
:1020580070C00F40000C00001100000011000000CB
:10206800E0841F40020000002C0000001200000065
:10207800E0841F4001000000100000001100000073
:10208800DC841F40020000002D0000001200000048
:10209800DC841F40010000001E0000000515000040
:1020A80070C00F40C00000001200000013000000C4
:1020B800D0841F4001000000FF000000FF00000066
:1020C80000000000000000001300000013000000E2
:1020D800CC841F4001000000FF000000FF0000004A
:1020E80000000000000000001C000000F9140000BF
:1020F800160355005300420020005300650072008B
:10210800690061006C000000180354006500650058
:102118006E00730079006400750069006E006F003E
:102128000403090409026200030100C032080B001D
:102138000202020100090400000102020100052454
:1021480000100105240101010424020605240600EB
:10215800010705820310001009040100020A0000AB
:10216800000705030240000007058402400000093B
:1021780004020002FF6AFF00070581024000010710
:10218800050102400001000009026200030100C0CD
:1021980032080B00020202010009040000010202D9
:1021A8000100052400100105240101010424020690
:1021B8000524060001070582031000050904010033
:1021C800020A000000070503020002000705840256
:1021D8000002000904020002FF6AC7000705810225
:1021E8000002010705010200020100000A060002C0
:0821F800EF02014001000000AC
:1022000000000000000000000000000000000000CE
:1022100000000000000000000000000000000000BE
:102220000548064B1B1AD90F01EBA301491002D038
:10223000034B03B118477047C03A0020C03A002052
:102240000000000008B5054B1BB105490548AFF378
:102250000080BDE80840FFF7E3BF00BF00000000BA
:10226000C0400020004C0160014801F0B3BB00BF3A
:10227000A83C00202DE9F8431D4D40F2EE281D4CEE
:102280001D4FDFF878902E6807F07CFC23780BB3A5
:102290003B78DB071ED52B68D9F800209B1A0E2B44
:1022A00018D9322005F0C2FE00F0C8FA322005F03D
:1022B000BDFE00F051FB322005F0B8FE00F06EFDCF
:1022C000322005F0B3FE00F003FE3220BDE8F843F3
:1022D00005F0ACBE2B6822789B1B2AB1B3F5FA6FD0
:1022E000DFD807F04FFCCFE74345FAD9D9E700BF65
:1022F000684100209641002095410020784100204F
:102300002DE9F843A24D2DED028B05F0E3FE2B687D
:102310000446C31AC72B76D89E4D2B68E31AC72BE9
:102320002DD99D4BB1EE047AD3ED007AF0EEE77A29
:10233000F4EEC77AF1EE10FA25DCDFED987A984FCB
:10234000F0EE670AB0EE670AC7ED007A954EC6ED6B
:10235000000A00F0CBF9944B396832681960934950
:10236000934B94481A600B68934A01332C6000FB2E
:10237000032292480B60B0EB720F00F2DD80BDECDF
:10238000028BBDE8F8838E4ABEEE006A8D4B92ED5B
:10239000000A9FED8D7A20EE060AD3ED006ADFED8C
:1023A0008B7AA6EE870AB4EEE70AF1EE10FA00F196
:1023B000D680DFED877AB4EE670AF1EE10FA37FEC9
:1023C000800A844ABEEE006A834BD2ED000A9FED7C
:1023D0007E7A60EE860AD3ED006ADFED7C7A704F7C
:1023E000E6EE870A87ED000AF4EEE70AF1EE10FA4E
:1023F00000F1B880DFED767AF4EE670AF1EE10FABC
:1024000077FEA00AA2E707EE903A9FED747A744B2C
:102410001620B8EE678A734E734FDFF8F081C7EE6F
:10242000087ADFF8E491C3ED007A00F00DF9152089
:1024300086ED000A00F008F9142087ED000A00F08C
:1024400003F9172088ED000A00F0FEF889ED000A74
:1024500000F00CFBD9ED001A98ED001AD7ED000A38
:1024600096ED000A00F03CFB604BDFED617A93EDE6
:10247000006A93ED017A5F4826EE276A5E4A27EEEE
:10248000277A90ED005AD2ED005AB7EEC66AB7EE41
:10249000C51A9968B7EEE52A4F4BB7EEC77A2C609C
:1024A000484D9FED334B9FED343BA2EE047BA1EEF4
:1024B000046B9FED331BB7EEC77B9FED334B77EE7D
:1024C000655A82ED007AB7EEC66B3D4A83ED007A1D
:1024D000404B36EE455AD2ED007A93ED007A80ED0E
:1024E000006A85EE082A85ED006A2B4801604348A2
:1024F00085EE885A016042494248B7EEE76AB7EE76
:10250000C77A26EE016BB7EEC22A27EE017B22EED8
:10251000032BB7EEC55A25EE035BA2EE046BA5EEC6
:10252000047BB7EEC66B82ED006AB7EEC77B83ED26
:10253000007A00F03DFBEFE633482A4B33492A4A44
:10254000D0ED001A204693ED000A91ED001AD2ED6D
:10255000000ABDEC028BBDE8F84300F075BBB0EE9D
:10256000670A2EE7F0EE670AF0E600BFAFF30080DF
:10257000000000606666E63F0000000080842E4197
:10258000000000989999E93F000000A09999C93F7F
:10259000F0400020D8400020B040002000000000A3
:1025A000F4400020F8400020E8400020384000209F
:1025B000EC400020CDCCCCCC9899991999999919D7
:1025C0004C400020A84000200000C8C2000016C3F4
:1025D0000000164350400020AC4000200024744905
:1025E00014410020404000203C40002008410020D1
:1025F0009A99993EDC400020E0400020E440002011
:10260000984000209C40002044400020484000208A
:1026100010B5084C04F1200001F0C8F90020064B69
:1026200084F86C00A366054A0549BDE8104007F030
:10263000E1BB00BF883C0020B02A0020882E00208B
:10264000690000000000000008B5C0B205F0EEFA15
:10265000B7EE080A83B206EE103A9FED0B7BB8EE98
:10266000C66B9FED0B4B26EE076B9FED0B5B86EE6B
:10267000047BB7EEC77BB7EEC77A37EE457BB7EE84
:10268000C77B87EE000A08BD6666666666660A4016
:102690000000000000F88F40666666666666FA3FD6
:1026A00038B5041E0B46154615DC0AD0D8B2FF21FA
:1026B00005F07EFF04F1FF01E8B2BDE8384005F007
:1026C00077BFC8B2214605F073FF2146E8B2BDE8E6
:1026D000384005F06DBFC4F1FF01D8B205F068FFC6
:1026E000FF21E8B2BDE8384005F062BF08B52DED26
:1026F000028BF0EE408A0322FDEEC07A0221B0EE9A
:10270000608AF1EE688A17EE900AFFF7C9FF072288
:10271000FDEEE87A062117EE900AFFF7C1FFFDEE05
:10272000C87AB1EE488A0922082117EE900AFFF70D
:10273000B7FFFDEEC87A05220421BDEC028B17EE2F
:10274000900ABDE80840FFF7ABBF00BFF8B5012114
:10275000122005F013FD01211320092505F00EFDBF
:1027600001211220324E05F0DFFC13200121314CF3
:1027700005F0DAFC0A20304F05F058FC0021132048
:1027800005F0D2FC61683268A7FB0232920C02EBC2
:102790008202520063685B1A9A42FBD8012113201F
:1027A00005F0C2FC61683268A7FB0232920C02EBB2
:1027B0008202520063685B1A9A42FBD8013DDDD168
:1027C0002946122005F0B0FC61681B4B3268194C99
:1027D000A3FB0232920C02EB8202520063685B1A86
:1027E0009A42FBD80121132005F09EFC6168124B30
:1027F0003268104CA3FB0232920C02EB82025200B0
:1028000063685B1A9A42FBD80121122005F08CFC08
:102810006068094B32680749A3FB0232920C02EB55
:10282000820252004B681B1A9A42FBD8F8BD00BFC7
:10283000AC1D0020001000E083DE1B43F8B5FFF75D
:1028400085FF322005F0F2FB374D384800240DF0AB
:102850009BFC3749354805F1200600F05FFF05F184
:102860006807322005F0E2FB0A2005F0DFFB0021BB
:10287000284603F055F980B331462B4800F08AFF13
:10288000002841D00023012130461A4601F0A4F867
:10289000012395F86C203946234801F031F80028CF
:1028A00037D0284603F05EF9002837D0284603F0D9
:1028B0005DF9B0B120211F4807F0E6F81E4805F089
:1028C000D7F81A480DF060FC1848194900F026FFA7
:1028D0003220BDE8F84005F0A9BB1849184801F0BE
:1028E00049F9013417491448224605F0DDF814204F
:1028F00005F09CFB052CBAD11C21134807F0C4F845
:102900000D4805F0B5F8DCE710490D4801F032F943
:10291000E7E70F490A4801F02DF9E2E70D490848B9
:1029200001F028F9DDE700BF883C0020B02A002034
:10293000801A0600D00F0020B01D0020180F0020C4
:10294000300F0020900F0020B00F00203C0F00201F
:10295000580F0020740F002008B508202DED028BC1
:1029600005F07CFF0A2005F0B9F9012104209FED54
:102970003E8A05F003FC0121052005F0FFFB012143
:10298000022005F0FBFB0121032005F0F7FB0121EC
:10299000062005F0F3FB0121072005F0EFFB0121E4
:1029A000082005F0EBFB0121092005F0E7FB0021E1
:1029B000142005F0E3FB0021152005F0DFFB0021CA
:1029C000162005F0DBFB0021172005F0D7FBB0EE49
:1029D000480A042005F052FEB0EE480A052005F032
:1029E0004DFEB0EE480A022005F048FEB0EE480A5F
:1029F000032005F043FEB0EE480A062005F03EFE37
:102A0000B0EE480A072005F039FEB0EE480A08206B
:102A100005F034FEB0EE480A092005F02FFE002133
:102A2000042005F081FB0021052005F07DFB00213D
:102A3000022005F079FB0021032005F075FB002141
:102A4000062005F071FB0021072005F06DFB002139
:102A5000082005F069FB00210920BDEC028BBDE8D0
:102A6000084005F061BB00BF0024F44617494FF051
:102A7000320C174A174B48681268A3FB0232920CBB
:102A800000B50CFB02F287B04B681B1A9A42FBD8C8
:102A900004AB02AA6946104803F05CF890B10F4BF2
:102AA0009DED005B9DED026B9DED047BB7EEC55B7C
:102AB000B7EEC66BB7EEC77B83ED005A83ED016AB4
:102AC00083ED027A07B05DF804FB00BF001000E060
:102AD000AC1D002083DE1B43883C0020FC4000200E
:102AE0001F4A204BD2ED027AD3ED026A1E4977EEDF
:102AF000E67AD3ED005A91ED007A91ED015AE0EEBD
:102B0000077A93ED016AD2ED006A92ED017A174BD4
:102B100076EEE56A164937EE467A164AE0EE857A91
:102B2000D3ED004AD1ED005A92ED006AE0EE256A3D
:102B300091ED015AA1EE067AD2ED015A93ED016AA8
:102B4000E1EE247A0C4BE0EE856AA1EEA57AE1EE87
:102B5000867AC3ED006A83ED017AC3ED027A70478D
:102B6000FC400020B440002088400020904000201D
:102B700078400020804000200841002010B5094C1A
:102B80001F21094806F080FF204604F071FFFFF77F
:102B900055FE1D21054806F077FF2046BDE8104090
:102BA00004F066BFB01D0020F40F002014100020B8
:102BB000214B90ED007AD3ED007AF4EE477A10B510
:102BC000F1EE10FA0C462DD193ED017AD0ED016AA9
:102BD000B4EE667AF1EE10FA24D1D3ED026A90EDEC
:102BE000026AF4EE466AF1EE10FA1BD10B68C0EDF2
:102BF000007A013380ED017AC0ED026A132B0B607D
:102C000018DD24210D4806F03FFF0D4804F030FF89
:102C1000FFF7B4FF00234FF47A702360BDE8104043
:102C200005F004BA9A6859680023C0ED007A416043
:102C30008260236010BD00BFFC400020F00E002029
:102C4000B01D00200000000070B52DED068B08EED1
:102C5000100A05214648B0EE419AF0EE618A454CD3
:102C6000B0EE40AA444EF0EE609A06F00DFFB8EECA
:102C7000487B06212046414D9FED3B6B87EE060BBE
:102C8000B7EEC00BB7EEC00A04F01EFF09213C48A6
:102C900006F0FAFEB7EECA0A0621204604F014FF39
:102CA0000A21384806F0F0FEB7EEE90A0621204670
:102CB00004F00AFF0921344806F0E6FEB7EEC90A1F
:102CC0000621204604F000FF0A21304806F0DCFE11
:102CD000B7EEE80A0621204604F0F6FE03212C4850
:102CE00006F0D2FE0021204604F0B6FE0121304657
:102CF00006F0CAFE95ED000A06212046B7EEC00A8E
:102D000004F0E2FE0321234806F0BEFE0021204627
:102D100004F0A2FE0121304606F0B6FE95ED010A50
:102D200006212046B7EEC00A04F0CEFE03211A4861
:102D300006F0AAFE0021204604F08EFE0121304656
:102D400006F0A2FE95ED020A20460621B7EEC00A63
:102D500004F0BAFE2046BDEC068BBDE8704004F0DE
:102D600087BE00BFAFF300800000000080842E41CA
:102D7000580E0020B01D00205C0E002008410020ED
:102D8000600E00206C0E0020780E0020840E0020C3
:102D9000900E0020940E0020980E002070B5162191
:102DA00086B042484FF47A7506F06EFE404804F053
:102DB0005FFE404C0023404EA3606360236004AB81
:102DC00002AA6946304602F0C5FEE8B1D4ED004AD9
:102DD0009DED026B9DED047B9DED005BB7EEC66B38
:102DE000D4ED016AB7EEC77BD4ED027AB7EEC55BCE
:102DF00036EE266A37EE277A35EE245A84ED016ADC
:102E000084ED027A84ED005A012005F00FF9013DAE
:102E1000D5D1DFED2A7A1C21D4ED025AD4ED006A17
:102E200094ED017A86EEA76A2548C7EE276A85EEFB
:102E3000A77A84ED006AC4ED016A84ED027A06F097
:102E400023FE1B4804F014FE07211E4806F01CFE5A
:102E50002946174804F000FE0C211B4806F014FE1A
:102E600094ED000A02211248B7EEC00A04F02CFECD
:102E70000221164806F008FE94ED010A02210C48D2
:102E8000B7EEC00A04F020FE0221104806F0FCFD57
:102E900094ED020A02210648B7EEC00A04F014FEBF
:102EA000034806B0BDE8704004F0E2BD9C0E00206F
:102EB000B01D0020B4400020883C002000007A446F
:102EC000B40E0020D40E0020DC0E0020EC0E0020FA
:102ED0002DE9F04F1A21B64CB648B74F2DED088BAF
:102EE000B3B006F0D1FDB54804F0C2FD0FAB1AAD8A
:102EF00094E807000C340695029583E8070026AA9B
:102F000012A993460592079189460FCC0FC50FCCA5
:102F10000FC594E80F0085E80F00302258460021C5
:102F200007F09CFE16AA002390469FED9BAB9FEDF9
:102F30009C9B9FED9D8BCDE91233CDE91433CDE9F8
:102F40001633CDE91833CDE9033225219C4806F02C
:102F50009BFD0399994804F07FFD984804F088FD93
:102F60000FAB984C0193029B1A785B780BEE102AFA
:102F70000BEE903A019B1BEE902A1BEE101AF3EC1D
:102F8000017AFDEEE77A019317EE900AFFF788FBCE
:102F9000322005F04BF83D683B685B1B632B60D823
:102FA000029B894E93F804A0504604F03FFEB7EE12
:102FB000085A80B2854B616807EE900A1A68844B04
:102FC000B8EEE76BD9ED005AA3FB0232322326EEAE
:102FD0000A6B920C03FB02F286EE097BB7EEC77B0D
:102FE000B7EEC77A37EE487BB7EEC77BC7EE057AF8
:102FF00075EEA77AC9ED007A63685B1A9A42FBD82E
:103000000CAB0AAA08A9304602F0A4FDE8B1DBED3A
:10301000004A9DED0C7B9DED085B9DED0A6BB7EEC4
:10302000C55BB7EEC66BF7EEC75B9BED047ADBEDD5
:10303000087A74EE856A37EE067A77EEA57ACBEDDC
:10304000006A8BED047ACBED087AD8F800300A20BC
:103050000133C8F8003004F0E9FF3B685B1B632BC9
:10306000A2D900211BEE100A05F0A2FA1BEE900A6D
:10307000002105F09DFA322004F0D8FF019B12AA2E
:1030800093427FF477AF039B08F10408029A0BF197
:10309000040B013309F104090C32042B039302924F
:1030A0007FF453AF4B4B01224B48D3ED014A02F161
:1030B000FF38D3ED025A93ED004A4849484D494C38
:1030C000DDE904E6DDE9067C5EF8043BA3B307EE28
:1030D000903ADCED006AB8F1010FF8EEE77A86EE7F
:1030E000A77A37D896ED006A96ED085A3B7AC6EE75
:1030F000276A83F0010305EB830804EB830385EE65
:10310000276A76EEC47AC7EE876A36EE656AC6EE3F
:10311000077AB1EE667A88ED007AF1EE677AC3ED50
:10312000007A01325EF8043B04360C370CF1040CD3
:1031300002F1FF38002BCAD1042AF2D121212A48FA
:1031400006F0A2FC1D4833B0BDEC088BBDE8F04F83
:1031500004F08EBC96ED046A042A96ED085AC6EE79
:10316000276A3B7A83F0010300EB830885EE276A28
:1031700001EB830376EEE47AC7EE876A36EE656A82
:10318000C6EE077AB1EE667A88ED007AF1EE677ADC
:10319000C3ED007AC5D1D1E76666666666660A4009
:1031A0000000000000F88F40666666666666FA3FBB
:1031B000700300203410002068410020B01D002062
:1031C00050100020001000E0883C0020AC1D0020C2
:1031D00083DE1B43B440002080400020904000204C
:1031E00078400020884000207810002000207047A0
:1031F00090F8A32090F8A200101A704790F8A2301F
:1032000090F8A3209A4205D95A1C034480F8A220C2
:10321000987E70474FF0FF30704700BF90F8A230A3
:1032200090F8A3209A4202D91844807E70474FF04C
:10323000FF307047704700BF0346B0F8300178B1E7
:1032400093F82F21882A03D9012200205A60704761
:1032500002F1010C01201A4483F82FC182F8A51055
:10326000704700BF38B5B0F830410CB9204638BDC2
:1032700090F82F310546C3F18904A2420DD81446B7
:1032800005F1A5002246184404F0B8FF95F82F3147
:103290002046234485F82F3138BD01224260EFE7F4
:1032A000704700BF2DE9F04FD0F814A01524017E1F
:1032B0008146437E83B00AEB0111384A0AEB0313BF
:1032C000374F097A93F8283002EB01150901E868B5
:1032D00052F8018002EB0311D5F804B01B01CE684F
:1032E000D558CBF80040C8F88400D8F804304A68B4
:1032F00003432C490192C8F804301460C5F8846077
:103300006B6833436B60284B4C683A68A3FB02320E
:10331000920C02EB820252004B681B1B9A42FBD8B4
:103320004FF0090C1F4ADFF880E0D8F8083003425C
:1033300002D0AB6833422FD1C5F888605468396831
:10334000AEFB0131890C01EB810153681B1B9942D3
:10335000FBD8C5F8846054683968AEFB0131890C2C
:1033600001EB810153681B1B9942FBD8BCF1010C96
:10337000DBD1604699F81830019A0AEB0313DB6839
:10338000CBF8003099F819300AEB031ADAF82C3030
:10339000136003B0BDE8F08F0120EBE7F0130020CD
:1033A000AC1D0020001000E083DE1B430E4A10B568
:1033B0001168046905E0DB0107D413685B1A102B60
:1033C00008D8636913F0007FF5D14FF4FE43012064
:1033D000636110BDFFF766FF0028FAD04FF4FE438B
:1033E00001206361F5E700BF684100202DE9F04747
:1033F00090F82FA10569BAF1000F4FD08146884699
:10340000FFF7D4FF002849D0374E0024376818E072
:103410006B69190551D4DA0455D4580559D4990467
:1034200041D43268D21B322A3DD8544507D9EA6DBF
:10343000520704D19B0555D4B8F1000F52D006F0C5
:10344000A1FB5445E4D8EA6D500702F00703DFD42E
:1034500013E099F8A5200133022442F48062042B82
:103460002A661ED08A4503F1010309EB01020ED939
:1034700092F8A520042B2A66CAD00121002CE8D09E
:103480002146013301348A4509EB0102F0D8B8F135
:10349000000FBDD04FF400732B66B9E70420BDE8E0
:1034A000F0870124B4E72B694FF40072042043F441
:1034B00040732B612A66BDE8F0872B69042043F432
:1034C00040732B61EBE72B69052043F440732B61BC
:1034D000E5E72B694FF40072022043F440732B613F
:1034E0002A66DCE70020DAE7684100202DE9F84F82
:1034F00083460C4615461F46D0F810A0FFF756FF2E
:10350000002800F09E806100012DDFF83C8140F230
:103510000146CBB24FF0000138BF0125D8F800902A
:103520000C461E43ABF8A21020E09BF8A330872B7B
:103530003FD9DAF8142010055AD412F4105F70D174
:10354000D8F80030A3EB0903322B6AD89BF8A330DC
:10355000AB4209D3022C07D9DAF85C30590703D102
:1035600093054BD4002F49D006F00CFB022CDCD87D
:10357000DAF85C3003F007025B07D6D4681E2244F9
:1035800040F480704CB9CAF860600134131B032BFF
:10359000CBD8022CC9D8002CF5D0012C37D01FB1C4
:1035A0004FF40073CAF860309BF8A3300324872BD4
:1035B000BFD8DAF85C2012F4E02FC2F3024CB8D086
:1035C000591C9C441933C9B25FFA8CFC5BFA83F333
:1035D000DAF870004A1C61458BF8A310D1B203F8E9
:1035E000010FA6D08929F3D1DAF814201005A4D54B
:1035F000DAF8103043F44073CAF81030DAF85C306F
:1036000013F4E02F06D19BF8A300BDE8F88FCAF8A9
:103610006000BAE7DAF8103043F40073CAF81030EB
:10362000F1E7DAF810304FF4007243F44073CAF84F
:103630001030CAF86020DAF85C3013F4E02FE2D0E2
:10364000E8E70420BDE8F88F68410020F8B5066976
:103650000446D6F8145115F4706301D0C6F814313D
:10366000A8070BD5D6F8702111043DD50023012100
:1036700084F8A230234484F8A3109A76EA0710D580
:1036800094F83071F7B194F82E7194F82F31BB4251
:1036900026D97B1C274484F82E3197F8A530C6F82C
:1036A0006031AB050DD594F8A30018B1D4F83C31C6
:1036B00003B198470023A4F8A230A4F82E3184F86F
:1036C0003031F8BDD4F8383103B19847002384F87D
:1036D0002E31012384F8303194F82F31BB42D8D8F1
:1036E0000023C6F86031DCE794F8A330872BC5D8F7
:1036F000591CC9B2BEE700BF0148FFF7A7BF00BF12
:10370000B02A00200148FFF7A1BF00BFF02B002026
:103710000148FFF79BBF00BF302D002010B4144CB0
:1037200000220369A1421A6114D8124C01201249E7
:103730004FF430329C6458629962DA629C6C0020CB
:103740004FF0011101221C6518625DF8044B996568
:103750001A6170470948814207D9094C09480A494A
:103760009C645A629862D962E8E7084C0848F6E718
:103770007F1A06003B372819B80B05053F420F009A
:103780000A09070460090101007F05001C1A120CD8
:10379000100E020238B5044604200D4606F078FBF0
:1037A0000346A06108B101201D6038BD30B4847F9C
:1037B00084469DF8085024B1012C02D0002030BC72
:1037C00070470295DCF80C40A468A44630BC604702
:1037D000827F034612B1012A00D07047DB68DB68A4
:1037E000184700BF0149024800F0C4B9E4100020A6
:1037F0001411002008B543691B681868FFF750FDD5
:10380000012008BD08B543691B6818680CF0BCFCB2
:10381000012008BD2DE9F84F1D4690F8108043693E
:103820004FEA58089DF828701E68E2B1D9B14FF0F0
:1038300001093368144608FA09F083F8309183F8D7
:103840002F9183F8A500306803685B689847494664
:1038500081463068FFF7CAFD5FFA89F94C4502D00E
:103860000020BDE8F88F002F3DD0002D3BD0414611
:1038700001233A463068FFF739FE013D1FFA87FB06
:1038800080460024DFF87090DFF870A01CE090F80C
:10389000A33090F8A220981A00281DDD3068036834
:1038A0005B69534522D190F8A22090F8A330511CB7
:1038B000934202441DD980F8A210907E013405F88D
:1038C000010FA4B2A34507D9306803681B694B45B3
:1038D000DDD098470028E1DCA7EB0800B0FA80F0C3
:1038E0004009BDE8F88F0120BDE8F88F9847C0B2C5
:1038F000E4E7FF20E2E700BFF10F0000FD0F00004A
:10390000F8B5044608200E4617461D4606F0C0FAD4
:10391000606188B100230A4A066039460371204677
:10392000A368D3F8BC30E260984720742DB1E368F7
:1039300020461B6898472846F8BD0120F8BD00BF07
:10394000702E0020F8B5164C0746164D0029036965
:10395000666815482A68A0FB0202786918BF1846F5
:10396000920C00FB02F263689B1B9A42FBD87878AA
:1039700089B1397904F0D8FBBC6809490A4B486819
:103980002A68A3FB0232920C04FB02F24B681B1A5A
:103990009A42FBD8F8BD797904F0C6FBFC68ECE7E5
:1039A000001000E0AC1D002083DE1B430023C0E9B3
:1039B0000033C0E90233C0E90433C0E90633C0E98B
:1039C0000833C0E90A33C0E90C33C0E90E33C0E95B
:1039D00010337047704700BF70B504460E461D4651
:1039E0000AB1037E8BBB002D3DD094F83030D3B9A3
:1039F00026B12378002B3BD105B970BD94F8303047
:103A0000002BFAD0002104F13000FFF79BFF94F85F
:103A10003030002BF1D094F8331094F83100BDE829
:103A2000704004F0ABBB94F8310094F8321004F00D
:103A3000A5FB94F8303004F13000002BD8D00121E0
:103A4000FFF780FF002ED4D1D8E7817E407E04F0BE
:103A500095FB237E04F11800002BC4D00021FFF752
:103A600071FF002DC1D1002EC7D02378002BC3D009
:103A7000A178607804F082FB2378002BBCD0002171
:103A80002046FFF75FFF2378002BB5D001212046A9
:103A9000FFF758FF002DB0D0B0E700BF70B5ADF50F
:103AA000027D0D461646019007F00AFA0446019978
:103AB00002A8224604F0A2FB04F10803324629467C
:103AC0000DEB030007F000F82044B0F5007F09D8A3
:103AD00002A807F0F5F9014602A805F0D5FF0DF59B
:103AE000027D70BD1B21084805F0CEFF4FF4007128
:103AF000064803F0B1FF2821054805F0C5FF03483B
:103B000003F0B6FFE4E700BF9C100020B01D0020CA
:103B1000B81000200FB400B583B0064804AA52F8CC
:103B2000041B0192FFF7BAFF03B05DF804EB04B089
:103B3000704700BFE010002070B505460B4803F049
:103B400097FF2B7F63B10024094E23462A68013476
:103B50003046D15CFFF7DEFF2A7FE3B29A42F5D808
:103B60000248BDE8704003F083BF00BFB01D0020D5
:103B7000601700200EB470B585B00B4E054609AC39
:103B8000304654F8041B019103F072FF224601995C
:103B900028460394FFF782FF304603F069FF05B023
:103BA000BDE8704003B07047B01D002005F0A0BF15
:103BB000D0E9002393F8290093F82A10105C0842FA
:103BC00009D193F8331093F83430525C1A4214BF81
:103BD0000120002070470020704700BFD0E900138B
:103BE00093F82E2093F82F308A5C1A4214BF0120DC
:103BF00000207047D0E9001393F8292093F82A3069
:103C00008A5C1A420CBF01200020704710B50024C6
:103C100082B0044B0E21044ACDE9004401F0AAFF12
:103C200002B010BDC01D00208C1E002001F0D2BFCC
:103C300000B5002283B00A21036800911146FFF706
:103C4000B5FD03B05DF804FB0B460C22032102F026
:103C500059B800BF02F07EB830B587B00B250724F5
:103C6000059301230094CDE9031202220021CDE93E
:103C70000125062202F0A8F907B030BD02F07AB89B
:103C800002F08EB80000000010B582B04FF0000CBA
:103C90000C460C220DF106030321ADF806C002F01C
:103CA0006BF9BDF90630B3EE096B07EE103A9FEDE4
:103CB000084BB8EEC77B9FED085B37EE447BA7EE61
:103CC000056B84ED006B02B010BD00BFAFF3008048
:103CD00000000000004075409A9999999999F13F28
:103CE000F0B583B004460F46002116461D46062255
:103CF0000DF10203ADF80210ADF80410ADF8061096
:103D000002F03AF901AB20460722012102F034F912
:103D10000DF1060320460B22022102F02DF9BDF918
:103D2000023005EE103ABDF9043006EE103ABDF946
:103D30000630B8EEC55B07EE103AB8EEC66B9FEDE5
:103D40000A4BB8EEC77B25EE045B26EE046B27EE2C
:103D5000047B87ED005B86ED006B85ED007B03B097
:103D6000F0BD00BFAFF300804A0C022B8716B93FAD
:103D700002F030B802F03EB802F052B8072908B598
:103D800002D8044A505C08BD034A02F0ABF9002097
:103D900008BD00BFE003002030060020024908B53E
:103DA00002F040F9002008BD78060020024908B55D
:103DB00002F038F9002008BD68060020024908B565
:103DC00002F030F9002008BD78040020024908B54F
:103DD00002F028F9002008BD8C040020024908B533
:103DE00002F020F9002008BD48040020024908B56F
:103DF00002F018F9002008BD84060020024908B529
:103E000002F010F9002008BD20050020024908B585
:103E100002F008F9002008BD3C050020024908B561
:103E200002F000F9002008BDA8040020024908B5EE
:103E300002F0F8F8002008BD64040020024908B52B
:103E400002F0F0F8002008BDA8060020024908B5DD
:103E500002F0E8F8002008BD94060020024908B5E9
:103E600002F0E0F8002008BDC8060020024908B5AD
:103E700002F0D8F8002008BD34040020024908B53B
:103E800002F0D0F8002008BD20040020024908B547
:103E900002F0C8F8002008BDD8040020024908B587
:103EA00002F0C0F8002008BDEC040020024908B56B
:103EB00002F0B8F8002008BD08050020024908B546
:103EC00002F0B0F8002008BD2C0500200000000022
:103ED000054908B502F0A6F89FED010B08BD00BF2B
:103EE0000000000000000000BC04002000000000F2
:103EF00010B52DED068B9FED0E8BB0EE41AB1C4641
:103F0000B0EE429B80EE080B05F022FF20808AEE87
:103F1000080B05F01DFF089B188089EE080B05F0C3
:103F200017FF099B1880BDEC068B10BDAFF3008016
:103F30004A0C022B8716B93F0149FFF7FDBD00BFB0
:103F40004C050020D0E9001393F82E2093F82F3071
:103F50008A5C1A4214BF01200020704730B587B038
:103F6000072504460593022300950A9DCDE9031217
:103F70000B220021CDE901320622012302F024F8B0
:103F80002B460C220321204607B0BDE8304001F04B
:103F9000B9BE00BF00B5002283B00A2103680091BA
:103FA0001146FFF703FC03B05DF804FB00000000BE
:103FB00010B582B00446FFF793FE00210DF1060311
:103FC0000C22ADF806102046032101F0D5FFBDF903
:103FD0000630B3EE096B07EE103A049B9FED064BDB
:103FE000B8EEC77B9FED065B37EE447BA7EE056B13
:103FF00083ED006B02B010BD000000000040754072
:104000009A9999999999F13F01EB810310B5446808
:1040100014F803E01C44BEF1010F0DD1637894F84D
:1040200003C000680A3302FA0CF2A478C15C4A406B
:1040300022405140C15410BDBDE8104002F022B8EA
:1040400010B5044611210122FFF7DEFF226892F825
:104050000CC0D37A917A83EA0C03507B4B405840D2
:1040600001F078FF112102462046FFF7CDFF012025
:1040700010BD00BF436810B593F841200446002AE4
:1040800036D193F84220006893F84310825C93F88D
:1040900044300A401A41D2B213212046FFF7B4FF40
:1040A000636893F846209ABB93F84720206893F8FA
:1040B0004810825C93F849300A401A41D2B2172165
:1040C0002046FFF7A1FF636893F84B20AAB9206848
:1040D00093F84C2093F84D10825C204693F84E30B4
:1040E0000A401B211A41BDE81040D2B2FFF78CBF35
:1040F0000D2101F0AFFF0022CEE720460F2101F095
:10410000A9FF204600221B21BDE81040FFF77CBF1D
:104110000E21204601F09EFF0022D0E7FFF7AABF44
:1041200010B5044682B0C9B1012905D00C4A01F08E
:10413000D9FF002002B010BD002218212046FFF751
:1041400063FF2046FFF77CFF2168002304220A3129
:1041500020460093FFF72AFB02B010BD0122ECE7D6
:104160004C060020072930B583B003D9002420462F
:1041700003B030BD0D4B04460D4A5D5C525C12210C
:10418000FFF742FF2046FFF75BFF21680023042270
:104190000A3120460093FFF709FB034620462946D3
:1041A0001C4601F03DFF204603B030BDE003002077
:1041B000F403002010B5044682B000221421FFF75A
:1041C00023FF2046FFF73CFF2168002304220A3129
:1041D00020460093FFF7EAFA02B010BD10B504467E
:1041E00082B001221421FFF70FFF2046FFF728FFBE
:1041F0002168002304220A3120460093FFF7D6FAF3
:1042000002B010BD114B01EB410130B503EB41058C
:10421000044683B013F811201521FFF7F5FE6A78E4
:1042200020461621FFF7F0FEAA7819212046FFF755
:10423000EBFE2046FFF704FF2168002304220A3129
:1042400020460093FFF7B2FA03B030BD000400200F
:10425000F0B5002283B00A270446114600260097D5
:104260000368FFF7A3FA236805462046C3F80A60EF
:10427000FFF700FF01221A212046FFF7C5FE204666
:10428000FFF7DEFE216833460422394420460096BB
:10429000FFF78CFA042105402046FFF7B3FF2046C4
:1042A000FFF7CEFE216833460422394420460096AB
:1042B000EDB2FFF77BFA02460097204615402368CF
:1042C00032463146FFF772FA284003B0F0BD00BF16
:1042D000026800231374026853740268D374704731
:1042E00010B5012182B00024044B054ACDE9001429
:1042F000172101F03FFC02B010BD00BF181F0020C5
:10430000E41F002001F066BC01F072BC01F090BC1B
:104310000B460622032101F001BF00BF01F01ABDC8
:1043200030B587B008250524059301230094CDE915
:10433000031202220021CDE90125042201F0F0FE42
:1043400007B030BD01F016BD01F02ABD0B460622B4
:10435000032101F0F5BE00BF01F03CBD30B587B0D0
:1043600008250524059301230094CDE903120222B8
:104370000021CDE90125042201F00EFF07B030BD78
:1043800001F038BD01F04CBD10B50C4682B01523CC
:1043900011221021009401F089FF02B010BD00BF6E
:1043A0000B461522122101F0A3BF00BF10B5152442
:1043B00082B000231322CDE90041012101F0B8FFB2
:1043C00002B010BD1A231922152101F0E1BF00BF70
:1043D0000B461622172102F01BB800BF10B50124AE
:1043E00082B01C2316221821009402F0A3FA02B016
:1043F00010BD00BF00231622192102F02FB800BF04
:1044000001231622192102F029B800BF0023162229
:104410001A2102F03BB800BF012316221A2102F034
:1044200035B800BF0B4616221B2102F047B800BF6B
:104430000B461C22162102F081B800BF0E230D226C
:104440001B2102F0F5B800BF02F01EB9024908B501
:1044500001F0E8FD002008BD20050020024908B554
:1044600001F0E0FD002008BD3C050020024908B530
:1044700001F0D8FD002008BDA8040020024908B5BD
:1044800001F0D0FD002008BD64040020024908B5F9
:1044900001F0C8FD002008BDA8060020024908B5AB
:1044A00001F0C0FD002008BD94060020024908B5B7
:1044B00001F0B8FD002008BDC8060020024908B57B
:1044C00001F0B0FD002008BD08050020024908B534
:1044D00001F0A8FD002008BD2C0500201C2216219B
:1044E00002F00EBA052102F03FBA00BF152102F01A
:1044F0004FBA00BF0A2102F089BA00BF092102F0B9
:104500008DBA00BF0B2102F09DBA00BF0C2102F052
:10451000A1BA00BF02F0A6BA02F0E6BA0023132245
:10452000012102F0B1BA00BF0149FFF705BB00BF8E
:10453000D806002030B587B0052504460593022330
:1045400000950A9DCDE9031208220021CDE9013230
:104550000422012301F020FE2B46062203212046DF
:1045600007B0BDE8304001F0EBBD00BF30B587B00B
:10457000052504460593022300950A9DCDE9031203
:1045800008220021CDE901320422012301F0C8FDF7
:104590002B4606220321204607B0BDE8304001F03B
:1045A000BDBD00BF02684FF0010C8021002382F8DE
:1045B00010C0026851740268D374026813750268EF
:1045C000D375704710B5022182B00024044B054A10
:1045D000CDE90014172101F0CDFA02B010BD00BFE3
:1045E000802000204C21002001F0F4BA01F000BB33
:1045F00001F01EBB0B460622032101F08FBD00BF58
:1046000001F0A8BB30B587B0082505240593012328
:104610000094CDE9031202220021CDE901250422F4
:1046200001F07EFD07B030BD01F0A4BB01F0B8BBC6
:104630000B460622032101F083BD00BF01F0CABB77
:1046400030B587B008250524059301230094CDE9F2
:10465000031202220021CDE90125042201F09CFD74
:1046600007B030BD01F0C6BB01F0DABB10B50C4697
:1046700082B0152311221021009401F017FE02B020
:1046800010BD00BF0B461522122101F031BE00BF44
:10469000022930B583B014D80B461149114A04469B
:1046A000CD5C2021D35C2A46019301F001FC019BE3
:1046B00015221321204601F0C3FD40B9002003B0AC
:1046C00030BD094A01F00EFD002003B030BD2B467D
:1046D00015221D21204603B0BDE8304001F0B0BDD9
:1046E000D0030020AC030020380900201A2319222F
:1046F000152101F04DBE00BF0B461622172101F017
:1047000087BE00BF10B5012482B01C2316221821D9
:10471000009402F00FF902B010BD00BF0023162272
:10472000192101F09BBE00BF01231622192101F0BF
:1047300095BE00BF002316221A2101F0A7BE00BFBC
:10474000012316221A2101F0A1BE00BF0B4616223A
:104750001B2101F0B3BE00BF0B461C22162101F045
:10476000EDBE00BF0E230D221B2101F061BF00BF73
:1047700001F08ABF024908B501F054FC002008BDD1
:1047800020050020024908B501F04CFC002008BDBE
:104790003C050020024908B501F044FC002008BD9A
:1047A000A8040020024908B501F03CFC002008BD27
:1047B00064040020024908B501F034FC002008BD63
:1047C000A8060020024908B501F02CFC002008BD15
:1047D00094060020024908B501F024FC002008BD21
:1047E000C8060020024908B501F01CFC002008BDE5
:1047F00008050020024908B501F014FC002008BD9E
:104800002C0500201C22162102F07AB8052102F0A6
:10481000ABB800BF152102F0BBB800BF0A2102F0FF
:10482000F5B800BF092102F0F9B800BF0B2102F072
:1048300009B900BF0C2102F00DB900BF02F012B996
:1048400002F052B920231322022102F01DB900BF49
:104850000149FFF771B900BF4C08002030B587B09F
:10486000052504460593022300950A9DCDE9031210
:1048700008220021CDE901320422012301F08CFC41
:104880002B4606220321204607B0BDE8304001F048
:1048900057BC00BF30B587B00525044605930223F9
:1048A00000950A9DCDE9031208220021CDE90132CD
:1048B0000422012301F034FC2B460622032120466A
:1048C00007B0BDE8304001F029BC00BF01207047AF
:1048D00010B4802304687F213822E3714FF0010C6B
:1048E00004682172046863720468A1720468E37248
:1048F0000468217301684A7301688A730168CA7386
:104900000022016881F810C001684B740368DA74F2
:104910005DF8044B704700BF10B5032182B000243E
:10492000044B054ACDE90014172101F023F902B028
:1049300010BD00BFF4210020C022002001F04AB9C0
:1049400001F056B901F074B90B460622032101F0BB
:10495000E5BB00BF01F0FEB930B587B008250524DE
:10496000059301230094CDE9031202220021CDE931
:104970000125042201F0D4FB07B030BD01F0FAB9E3
:1049800001F00EBA0B460622032101F0D9BB00BF8D
:1049900001F020BA30B587B008250524059301231E
:1049A0000094CDE9031202220021CDE90125042261
:1049B00001F0F2FB07B030BD01F01CBA01F030BAD3
:1049C00010B50C4682B0252321222021009401F04D
:1049D0006DFC02B010BD00BF0B462522222101F064
:1049E00087BC00BF10B5252482B000232322CDE967
:1049F0000041012101F09CFC02B010BD2A232922B4
:104A0000252101F0C5BC00BF0B462622272101F05D
:104A1000FFBC00BF10B5012482B02C232622282120
:104A2000009401F087FF02B010BD00BF00232622D2
:104A3000292101F013BD00BF01232622292101F005
:104A40000DBD00BF002326222A2101F01FBD00BF9B
:104A5000012326222A2101F019BD00BF0B46262280
:104A60002B2101F02BBD00BF0B462C22262101F08B
:104A7000A1BD00BF0E230D222B2101F0D9BD00BF27
:104A800001F002BE162101F00FBE00BF2523172240
:104A90001A2101F047BE00BF2522172101F07ABE7E
:104AA00030B591B01E25BDF950400C9314230D94E0
:104AB0001B240995CDE90A1215211F220891132103
:104AC000CDE9041418241121CDE90632CDE90014F2
:104AD0001C22BDF95440122325210E94BDF95840E3
:104AE000CDE90232192310220F9401F097FE11B084
:104AF00030BD00BF10B523238EB0002401211E223B
:104B0000CDE90B3415241F23CDE9092114211B22E3
:104B1000CDE9073413241C23CDE9052112211822E5
:104B2000CDE9033411241923CDE9012110222521D7
:104B3000009402F039F80EB010BD00BF024908B56C
:104B400001F070FA002008BDC8060020024908B52F
:104B500001F068FA002008BD08050020024908B5E8
:104B600001F060FA002008BD2C0500202C2226212F
:104B700001F0C6BE052101F0F7BE00BF252101F0FE
:104B800019BF00BF0A2101F041BF00BF092101F098
:104B900045BF00BF0B2101F055BF00BF0C2101F044
:104BA00059BF00BF01F05EBF01F09EBF002323226A
:104BB000012101F069BF00BF0149FEF7BDBF00BF81
:104BC0005409002030B587B005250446059302231B
:104BD00000950A9DCDE9031208220021CDE901329A
:104BE0000422012301F0D8FA2B4606220321204695
:104BF00007B0BDE8304001F0A3BA00BF30B587B0C0
:104C0000052504460593022300950A9DCDE903126C
:104C100008220021CDE901320422012301F080FAAB
:104C20002B4606220321204607B0BDE8304001F0A4
:104C300075BA00BF0120704710B44FF0620C0468D1
:104C400000217F2284F80AC080230468E17204688E
:104C50002273046863730468A2730468E3730468CE
:104C60002274CC220468637403689A742C2203684B
:104C7000DA740368D9765DF8044B704710B50621E5
:104C800082B00024044B054ACDE900141B2100F03A
:104C900071FF02B010BD00BFAC23002078240020BB
:104CA00000F098BF332102F063B800BF00F0C0BF2E
:104CB0000B460822072102F077B800BF01F04AB87E
:104CC00030B587B006250424059303230094CDE96D
:104CD000031205220021CDE90125022202F066F827
:104CE00007B030BD01F046B801F05AB80B460822B3
:104CF000072102F069B800BF01F06CB810B588B0A8
:104D00000824CDE905120722062107930323CDE9E4
:104D1000032405220424CDE901210222002100946C
:104D200002F07EF808B010BD01F064B801F078B868
:104D30000B463322182102F0A3B900BF0A46152101
:104D400002F0CCB90B461A221B2102F0DFB900BFDA
:104D500038B504460122112101F0AAF820460122AB
:104D6000122101F0A5F820460122132101F0A0F83C
:104D700020460222152101F09BF80122204616212F
:104D800001F096F81121204601F0C6F800220546F0
:104D90001821204601F08CF81821204601F0BCF8BB
:104DA0002843C0B238BD00BF0A46002102F0D2B984
:104DB0000122162102F0D6B90022132102F0DEB939
:104DC0000122132102F0DAB90022122102F0E2B925
:104DD0000122122102F0DEB90A46112102F0E6B9E1
:104DE0000A46192102F002BA0A2102F017BA00BFDE
:104DF00002F01CBA142102F01DBA00BF262327229C
:104E0000142102F011BC00BF10B5262482B0272364
:104E100014221221009402F0DBFB02B010BD00BF8F
:104E200030B593B0212420250C9129210A950991B0
:104E30001E21CDE90D232423BDF9582006911C2104
:104E40000F922822CDE9073425231F240B92232219
:104E500005932223CDE903341D2426230094BDF9B4
:104E60005C40CDE9012110942722BDF96040142156
:104E7000119402F075FA13B030BD00BF10B51B21BC
:104E80008EB01A2428222023CDE90C1429242121B4
:104E9000CDE90A32CDE9081424221E2325241F213E
:104EA000CDE90632CDE9041422221C2323241D213E
:104EB000CDE90232CDE9001426232722142102F085
:104EC000C7FA0EB010BD00BF10B504462A2101225A
:104ED00000F0EEFF20462B21BDE8104002F0D8B9CB
:104EE000024908B501F0E6F8002008BD34040020AE
:104EF000024908B501F0DEF8002008BD20040020BA
:104F0000024908B501F0D6F8002008BDC80A002003
:104F1000024908B501F0CEF8002008BDD8040020F1
:104F2000024908B501F0C6F8002008BDEC040020D5
:104F3000024908B501F0BEF8002008BDE80A0020CB
:104F4000102102F0CBBB00BF0E2102F0CFBB00BF8F
:104F50000B2102F0D3BB00BF02F0D8BB02F010BCA3
:104F60001A231B22022102F0E3BB00BF0149FEF716
:104F7000E3BD00BFF80A002030B587B00425044621
:104F80000593052300950A9DCDE903120622002111
:104F9000CDE901320222032301F008FF2B4608224B
:104FA0000721204607B0BDE8304001F0FDBE00BF3C
:104FB000F0B589B0082607250446079306230E9FFF
:104FC00002930423CDE9051205220021CDE9003228
:104FD000CDE903560323022201F022FF3B4632466D
:104FE0002946204609B0BDE8F04001F0EDBE00BF03
:104FF0000120704710B44FF0620C046800217F223A
:1050000084F80AC080230468E1720468227304688B
:1050100063730468A2730468E37304682274CC2287
:105020000468637403689A742C220368DA74036852
:10503000D9765DF8044B704710B5072182B0012482
:10504000044B054ACDE900141B2100F093FD02B08A
:1050500010BD00BF7C2500204826002000F0BABD0E
:10506000302101F085BE00BF302101F08FBE00BFAE
:105070000B460722062101F097BE00BF00F06ABE72
:1050800030B587B005250324059302230094CDE9AC
:10509000031204220021CDE90125012201F086FE40
:1050A00007B030BD00F066BE00F07ABE0B460722A6
:1050B000062101F089BE00BF00F08CBE10B588B09B
:1050C0000724CDE905120622052107930223CDE925
:1050D000032404220324CDE90121012200210094AC
:1050E00001F09EFE08B010BD00F084BE00F098BE36
:1050F00070B50C46A1F107010546B1FA81F14909E5
:105100008900FEF765FB2346284630221521BDE8BD
:10511000704001F0B5BF00BF0B461722182101F007
:10512000F5BF00BF38B505460122112100F0C0FED1
:105130001021284600F0F0FE0122044627212846CF
:1051400000F0B6FE2721284600F0E6FE2040C0B25F
:1051500038BD00BF024908B500F064FF002008BD5B
:10516000D40C0020024908B500F05CFF002008BD07
:10517000AC0C0020024908B500F054FF002008BD27
:105180008C040020024908B500F04CFF002008BD47
:10519000480400200022112101F0FCBF012211214E
:1051A00001F0F8BF0A46102102F000B80A461621A5
:1051B00002F01CB8092102F031B800BF02F036B885
:1051C000122102F037B800BF23232422122102F05B
:1051D0002BBA00BF10B5232482B024231222112140
:1051E000009402F0F5F902B010BD00BF30B593B0E5
:1051F0001E241D250C9126210A9509911B21CDE91C
:105200000D232123BDF95820069119210F92252243
:10521000CDE9073422231C240B92202205931F235F
:10522000CDE903341A2423230094BDF95C40CDE971
:10523000012110942422BDF960401221119402F042
:105240008FF813B030BD00BF10B518218EB01724F1
:1052500025221D23CDE90C1426241E21CDE90A3276
:10526000CDE9081421221B2322241C21CDE906327A
:10527000CDE904141F22192320241A21CDE902327A
:10528000CDE9001423232422122102F0E1F80EB00C
:1052900010BD00BF10B504462721012200F008FE12
:1052A00020462821BDE8104001F0F2BF024908B5B0
:1052B00000F000FF002008BD34040020024908B5BA
:1052C00000F0F8FE002008BD20040020024908B5C7
:1052D00000F0F0FE002008BDC80A0020024908B511
:1052E00000F0E8FE002008BDD8040020024908B5FF
:1052F00000F0E0FE002008BDEC040020024908B5E3
:1053000000F0D8FE002008BDE80A0020024908B5D8
:1053100000F0D0FE002008BDC00C00200F2102F0DC
:10532000DDB900BF0D2102F0E1B900BF0A2102F092
:10533000E5B900BF02F024BA17231822022102F0B7
:10534000F7B900BF0149FEF7F7BB00BFF80A00201C
:10535000052901D1002070470A46132101F0BEBE85
:1053600030B587B0032504460593042300950A9DB4
:10537000CDE9031205220021CDE9013201220223E9
:1053800001F014FD2B4607220621204607B0BDE898
:10539000304001F009BD00BFF0B589B007260625F1
:1053A0000446079305230E9F02930323CDE90512BC
:1053B00004220021CDE90032CDE903560223012267
:1053C00001F02EFD3B4632462946204609B0BDE895
:1053D000F04001F0F9BC00BF0120704710B48023F9
:1053E00004687F213822E3714FF0010C04682172B8
:1053F000046863720468A1720468E372046821732C
:1054000001684A7301688A730168CA7300220168DF
:1054100081F810C001684B740368DA745DF8044BBE
:10542000704700BF10B5042182B00024044B054A28
:10543000CDE90014172100F09DFB02B010BD00BFA4
:10544000402700200C28002000F0C4BB00F0D0BB97
:1054500000F0EEBB0B460622032100F05FBE00BF4A
:1054600000F078BC30B587B00825052405930123EA
:105470000094CDE9031202220021CDE90125042286
:1054800000F04EFE07B030BD00F074BC00F088BCE8
:105490000B460622032100F053BE00BF00F09ABC69
:1054A00030B587B008250524059301230094CDE984
:1054B000031202220021CDE90125042200F06CFE36
:1054C00007B030BD00F096BC00F0AABC10B50C4689
:1054D00082B0252321222021009400F0E7FE02B0B3
:1054E00010BD00BF0B462522222100F001BF00BFE6
:1054F00010B5252482B000232322CDE900410121EB
:1055000000F016FF02B010BD2A232922252100F049
:105510003FBF00BF0B462622272100F079BF00BF06
:1055200010B5012482B02C2326222821009401F0FA
:1055300001FA02B010BD00BF00232622292100F08D
:105540008DBF00BF01232622292100F087BF00BFA5
:10555000002326222A2100F099BF00BF0123262222
:105560002A2100F093BF00BF0B4626222B2100F01A
:10557000A5BF00BF0B462C22262101F01BB800BF9F
:105580000E230D222B2101F053B800BF01F07CB88F
:10559000162101F089B800BF252317221A2101F036
:1055A000C1B800BF2522172101F0F4B830B591B081
:1055B0001E25BDF950400C9314230D941B2409950E
:1055C000CDE90A1215211F2208911321CDE90414F7
:1055D00018241121CDE90632CDE900141C22BDF9B1
:1055E0005440122325210E94BDF95840CDE90232D2
:1055F000192310220F9401F011F911B030BD00BF32
:1056000010B523238EB0002401211E22CDE90B34D6
:1056100015241F23CDE9092114211B22CDE90734CC
:1056200013241C23CDE9052112211822CDE90334CE
:1056300011241923CDE9012110222521009401F024
:10564000B3FA0EB010BD00BF024908B500F0EAFC85
:10565000002008BDC8060020024908B500F0E2FCA1
:10566000002008BD08050020024908B500F0DAFC5A
:10567000002008BD2C0500202C22262101F040B975
:10568000052101F071B900BF252101F093B900BFD8
:105690000A2101F0BBB900BF092101F0BFB900BF69
:1056A0000B2101F0CFB900BF0C2101F0D3B900BF2D
:1056B00001F0D8B901F018BA00232322012101F02A
:1056C000E3B900BF0149FEF737BA00BF5409002013
:1056D00030B587B0052504460593022300950A9D41
:1056E000CDE9031208220021CDE901320422012371
:1056F00000F052FD2B4606220321204607B0BDE8EC
:10570000304000F01DBD00BF30B587B00525044610
:105710000593022300950A9DCDE90312082200217A
:10572000CDE901320422012300F0FAFC2B460622C7
:105730000321204607B0BDE8304000F0EFBC00BFB9
:105740000120704710B4802304687F213822E37160
:105750004FF0010C04682172046863720468A1723E
:105760000468E3720468217301684A7301688A73EC
:105770000168CA730022016881F810C001684B7487
:105780000368DA7403681A750368DA755DF8044B08
:10579000704700BF10B5052182B00024044B054AB4
:1057A000CDE90014172100F0E5F902B010BD00BFEB
:1057B000F8280020C429002000F00CBA00F018BA24
:1057C00000F036BA0B460622032100F0A7BC00BF4A
:1057D00000F0C0BA30B587B0082505240593012331
:1057E0000094CDE9031202220021CDE90125042213
:1057F00000F096FC07B030BD00F0BCBA00F0D0BAA3
:105800000B460622032100F09BBC00BF00F0E2BA69
:1058100030B587B008250524059301230094CDE910
:10582000031202220021CDE90125042200F0B4FC7C
:1058300007B030BD00F0DEBA00F0F2BA10B50C4689
:1058400082B023231F221E21009400F02FFD02B0FE
:1058500010BD00BF0B462322202100F049BD00BF30
:10586000022930B583B014D80B461149114A0446B9
:10587000CD5C2E21D35C2A46019300F019FB019BDD
:1058800023222121204600F0DBFC40B9002003B098
:1058900030BD094A00F026FC002003B030BD2B4685
:1058A00023222B21204603B0BDE8304000F0C8BCC5
:1058B000D8030020D4030020380900202823272201
:1058C000232100F065BD00BF0B462422252100F0F6
:1058D0009FBD00BF10B5012482B02A2324222621B7
:1058E000009401F027F802B010BD00BF002324226D
:1058F000272100F0B3BD00BF01232422272100F09F
:10590000ADBD00BF00232422282100F0BFBD00BF91
:1059100001232422282100F0B9BD00BF0B46242218
:10592000292100F0CBBD00BF0B462A22242100F024
:1059300041BE00BF0E230D22292100F079BE00BF19
:1059400000F0A2BE162100F0AFBE00BF2322172137
:1059500000F020BF30B591B01C25BDF950400C932C
:1059600014230D941A240995CDE90A1215211D223C
:1059700008911321CDE9041418241121CDE9063230
:10598000CDE900141B22BDF95440122323210E94AB
:10599000BDF95840CDE90232192310220F9400F0CE
:1059A0003DFF11B030BD00BF10B521238EB02E24B5
:1059B00002211C22CDE90B3415241D23CDE9092138
:1059C00014211A22CDE9073413241B23CDE9052124
:1059D00012211822CDE9033411241923CDE9012124
:1059E00010222321009401F0DFF80EB010BD00BF9B
:1059F000024908B500F016FB002008BDC8060020CB
:105A0000024908B500F00EFB002008BD0805002083
:105A1000024908B500F006FB002008BD2C05002057
:105A20002A22242100F06CBF052100F09DBF00BF99
:105A3000232100F0BFBF00BF0A2100F0E7BF00BF75
:105A4000092100F0EBBF00BF0B2100F0FBBF00BF3E
:105A50000C2100F0FFBF00BF01F004B801F044B812
:105A60002E232122022101F00FB800BF0149FEF7C9
:105A700063B800BFE40C002010B5044617210122D2
:105A800000F016FAA3682046D3F89C3098472321EB
:105A90000246204600F00CFA204600F00DFE28B128
:105AA000A36820469B68BDE81040184710BD00BFA2
:105AB00030B587B0052504460593022300950A9D5D
:105AC000CDE9031208220021CDE90132042201238D
:105AD00000F026FB2B4606220321204607B0BDE836
:105AE000304000F01BBB00BF30B587B00525044631
:105AF0000593022300950A9DCDE903120822002197
:105B0000CDE901320422012300F046FB2B46062298
:105B10000321204607B0BDE8304000F011BB00BFB4
:105B2000072915D8DFE801F006080A0C0E10120448
:105B3000FFF782BAFEF76AB8FEF7D2BBFEF742BDA6
:105B4000FEF7EABEFFF76EBCFFF724BEFFF796B87C
:105B50000020704710B48468646BA4465DF8044B61
:105B6000604700BF8368DB6C184700BF83685B6FCA
:105B7000184700BF2DE9F0470E4604460121904624
:105B800030461F469DF820A09DF8249004F038F977
:105B9000206090B10023267784F81DA0204684F869
:105BA0001E90D7F8B820C4F80480C4E90273C4E991
:105BB000053390470120BDE8F087054603490448B6
:105BC000FDF7D8FFFDF7F2FF2846F4E7441900205F
:105BD000300F002010B50446006818B104F060F9D9
:105BE0000023236000230120E360C4E9053310BDD6
:105BF00010B50022037F82B004461146009303686B
:105C0000FDF7D4FD217F01290ED923680239013324
:105C100053FA81F103E08B4203F1010304D01A78B7
:105C2000FF2AF8D002B010BD002002B010BD00BFA6
:105C30002DE9F04184B004460B2590F81C800368E0
:105C400002AF08F10700424619467B6000F4FC7081
:105C5000ADEB000D02AE304602F0D0FA7B680022B8
:105C60002046CDF800801146FDF7A0FD227F864634
:105C70002068012A1CD9A2F1020C411C034651FAEA
:105C80008CFC01E0634513D013F8011FFF29F9D004
:105C9000BEF1000F0CD0A36820461B6F984728B1B7
:105CA000A3682046D3F8A0309847D8B92068227F4F
:105CB000013D314602F0A2FA15F0FF0503D023683A
:105CC00094F81C80CBE7A36820461B6F984748B91F
:105CD000637F072B0BD8074A52F823200649074851
:105CE000FDF748FF01200837BD46BDE8F081044AB2
:105CF000F4E700BFB00300207C190020300F002023
:105D00005C19002030B501EB810102EB8202D0E981
:105D1000004568182A44417890F804E0615C90F8E6
:105D200003C0807801400CEB0E00C0F110008140F0
:105D30001079704409B2C0F1100001411980507807
:105D40009578205CD47800EA05022241114319803D
:105D500030BD00BF836870B5DB6805460E469847C6
:105D6000044620B1AB68314628461B699847204657
:105D700070BD00BF2DE9F0419846836805460E4688
:105D8000DB6817469847044630B13146AE6828466E
:105D900043463A46B569A8472046BDE8F08100BFB2
:105DA0002DE9F0419846836882B00546DB680E46CF
:105DB00017469847044640B1089B314628463A4664
:105DC00000934346AE68356AA847204602B0BDE856
:105DD000F08100BF836870B5DB6805460E469847C2
:105DE000044620B1AB68314628469B6A9847204656
:105DF00070BD00BF2DE9F0419846836805460E4608
:105E0000DB6817469847044630B13146AE682846ED
:105E100043463A46356BA8472046BDE8F08100BFAF
:105E20002DE9F0419846836882B00546DB680E464E
:105E300017469847044640B1089B314628463A46E3
:105E400000934346AE68B56BA847204602B0BDE854
:105E5000F08100BF426808B501EB810302EB030C3F
:105E6000D35C13F0FD0F0BD19CF8011000689CF877
:105E70000220405C9CF8033010401841C0B208BDBD
:105E8000437F072B09D8064A52F823300A460548B3
:105E90000549FDF76FFE002008BD044BF6E700BF83
:105EA000B0030020300F0020AC1900205C19002046
:105EB000436800B501EB810E13F80EC073440CF17A
:105EC000FF3CBCF1010F10D893F801C093F803E038
:105ED000006802FA0EF29B7810F80C104A401A4043
:105EE000514000F80C105DF804FB437F072B09D8E4
:105EF000054A52F823300A46044805495DF804EB88
:105F0000FDF738BE034BF6E7B0030020300F00204A
:105F1000E01900205C19002001EB8101426802EBCE
:105F2000010C525C013A012A01D90020704700B5EA
:105F3000016885B09CF8012000238DF80C20895C55
:105F4000022200938DF80D1003A9FDF72FFC05B078
:105F50005DF804FB80EA101080EA900080EA5000AF
:105F600000F00100704700BFC04300F0010070471F
:105F700000F00100704700BF30B501EB810102EB7A
:105F80008202D0E9004568182A44417890F804E07C
:105F9000615C90F803C0807801400CEB0E00C0F10A
:105FA000100081401079704409B2C0F11000014125
:105FB000198050789578205CD47800EA0502224157
:105FC0001143198030BD00BF2DE9F04704461D463E
:105FD0009DF820909DF824609DF82870DDF83480AD
:105FE000DDE90B3AFFF7C8FF4A46534629462046EB
:105FF000FFF7C2FF43463A4631462046BDE8F04728
:10600000FFF7BABF437F072B03D8034A52F8230098
:1060100070470248704700BFB00300205C190020A1
:1060200001747047437F0A46072B06D80549064886
:1060300051F823300549FDF79DBD054B0349024842
:10604000FDF798BDB003002014110020B01B002004
:106050005C190020437F0A46072B06D805490648ED
:1060600051F823300549FDF785BD054B034902482A
:10607000FDF780BDB0030020300F0020AC190020D8
:106080005C190020437F0A46072B06D805490648BD
:1060900051F823300549FDF76DBD054B0349024812
:1060A000FDF768BDB0030020300F0020E01900208C
:1060B0005C190020437F0A46072B06D8054906488D
:1060C00051F823300549FDF755BD054B03490248FA
:1060D000FDF750BDB0030020300F0020141A00203F
:1060E0005C19002010B5407F82B0134607280AD8FB
:1060F000064A52F820400A46054806490094FDF732
:1061000039FD02B010BD044CF5E700BFB00300201C
:10611000300F0020481A00205C190020FFF7F2BD64
:1061200010B49DF8044001949DF8084002949DF835
:106130000C4003945DF8044BFFF746BF00000000DD
:1061400010B582B04FF0000C1C460DF10603ADF8FF
:1061500006C0FFF711FFBDF90620B3EE096B9200F0
:1061600013B207EE103A9FED084BB8EEC77B9FEDD8
:10617000085B37EE447BA7EE056B84ED006B02B045
:1061800010BD00BFAFF3008000000000007092401F
:10619000B81E85EB51B8CE3F2DE9F04182B01D46C7
:1061A000002304469DF820809DF824609DF8287007
:1061B000ADF80230ADF80430ADF806300DF1020351
:1061C000FFF7DAFE4246294601AB2046FFF7D4FE30
:1061D0003A4631460DF106032046FFF7CDFEA3688F
:1061E0002046D3F8C4309847BDF902309FED127BAA
:1061F00005EE103ABDF9043020EE070B06EE103A1A
:10620000BDF90630B8EEC55B07EE103AB8EEC66BC6
:106210000B9BB8EEC77B85EE004B86EE005B87EEEE
:10622000006B83ED004B0C9B83ED005B0D9B83EDBE
:10623000006B02B0BDE8F081CDCCCCCCCCCC1E4004
:1062400038B5044615461A46FFF732FEA3682046C5
:10625000D3F89C309847294602462046FFF728FE8F
:1062600029462046BDE83840FFF756BEF8B504463B
:1062700016469DF81C701D469DF81820FFF718FE65
:106280003A4631462046FFF713FEA3682046D3F86E
:106290009C309847294602462046FFF709FE2946CA
:1062A0002046BDE8F840FFF737BE00BF30B583B0E9
:1062B00084469DF81840012C14D0062C07D07CB1E0
:1062C0000A4A2146FFF70EFF002003B030BD01242B
:1062D0002546604601940095FFF7C8FF03B030BD26
:1062E0000125F6E700242546F3E700BF4C06002011
:1062F000022B38B514D8044615461A46FFF7D8FDC8
:10630000A3682046D3F89C30984729460246204689
:10631000FFF7CEFD29462046BDE83840FFF7FCBD1B
:10632000024A1946FFF7DEFE002038BDE01A0020C1
:1063300038B596469DF810509DF8142031B10129CA
:1063400008D0124AFFF7CEFE002038BDB2FA82F024
:10635000400938BD022A01D1002038BD003A044668
:10636000714618BF0122FFF7A3FDA3682046D3F8AA
:106370009C309847294602462046FFF799FD29465A
:106380002046BDE83840FFF7C7BD00BFBC1A00205B
:1063900070B504461E460D4611460022FFF788FDE3
:1063A000204601223146FFF783FDA36820465B6D3E
:1063B000984700B970BDA36820469B689847E8B12C
:1063C00029462046FFF746FD01280FD0A368204646
:1063D000D3F89C309847294602462046FFF768FDCF
:1063E00029462046BDE87040FFF796BDA3682046C9
:1063F000D3F8A83098470028E8D1ECE702490348D1
:10640000FDF7B8FBDCE700BF8C1A0020300F00203E
:10641000032B70B502D90024204670BD15460E4AE4
:106420000446D65C1A46FFF743FDA3682046D3F81E
:1064300094309847294602462046FFF739FD294601
:106440002046FFF769FD0346204631461C46FFF70C
:10645000E7FD204670BD00BFF003002070B5044684
:1064600016461A460D46FFF723FDA3682046D3F8CB
:1064700094309847314602462046FFF719FD2946D9
:106480002046BDE87040FFF747BD00BF70B5044629
:1064900016461A460D46FFF70BFDA3682046D3F8B3
:1064A00094309847314602462046FFF701FD2946C1
:1064B0002046BDE87040FFF72FBD00BF70B502EB6E
:1064C000820615464268022B84B004463244567850
:1064D00030D0042B08D0012B2AD0174A1946FFF7D9
:1064E00001FE002004B070BD01222046FFF7E0FC51
:1064F000A3682046D3F894309847294602462046A0
:10650000FFF7D6FC22688DF80C600023915D3244C1
:1065100020468DF80D1051788DF80E1003A994784F
:10652000042200938DF80F40FDF740F904B070BDD0
:106530000322DAE70022D8E7A41A002070B50D463E
:106540004668114684B005EB8502044606EB020C52
:106550009CF8016043B1012B06D0154A1946FFF79C
:10656000C1FD002004B070BD1A462046FFF7A0FC14
:10657000A3682046D3F8943098472946024620461F
:10658000FFF796FC22688DF80C600023915D324481
:1065900020468DF80D1051788DF80E1003A99478CF
:1065A000042200938DF80F40FDF700F904B070BD90
:1065B000F81A002070B50D464668114684B005EB08
:1065C000850206EB020C9CF80160A3F1020C5FFA55
:1065D0008CF2072A22D80446FFF76AFCA3682046FB
:1065E000D3F894309847294602462046FFF760FCCE
:1065F00022688DF80C600023915D324420468DF8AE
:106600000D1051788DF80E1003A994780422009390
:106610008DF80F40FDF7CAF804B070BD034A194663
:10662000FFF760FD002004B070BD00BFF81A002025
:106630002DE9F0419846836804460E46D3F8A4300D
:106640001746984730B1A3682046D3F8B43098472E
:10665000054618B900252846BDE8F0813146204698
:10666000FFF7F8FB0328F6D039462046FFF7F2FB88
:106670000128EFD141462046FFF7ECFBA0F10105D0
:10668000B5FA85F56D09E6E7836810B5D3F8A03053
:106690000446984730B1A3682046D3F8A830BDE837
:1066A0001040184710BD00BF08B5FFF7D3FB0038F6
:1066B00018BF012008BD00BF10B5046886B00721CF
:1066C000002394F807C00B228DF80C1003A98DF855
:1066D0000DC094F808C08DF80EC094F809C08DF86C
:1066E0000FC094F80AC08DF810C094F80BC08DF854
:1066F00011C094F80CC08DF812C094F80DC08DF83C
:1067000013C094F80EC08DF814C094F80FC0247C08
:1067100000938DF815C08DF81640FDF747F806B0C8
:1067200010BD00BF2DE9F041044617461D460E4638
:10673000FFF790FB90B1002231462046FFF7B8FBEF
:10674000A3682046D3F89C30984729460246204645
:10675000FFF7AEFB2046FFF7AFFFC0B1012239467D
:106760002046FFF7A5FBA3682046D3F89C30984746
:10677000294602462046FFF79BFB2046FFF79CFF79
:1067800028B1A36820469B68BDE8F0411847002067
:10679000BDE8F08170B5044615460022FFF788FB7E
:1067A000A3682046D3F89C309847294602462046E5
:1067B000FFF77EFB2046FFF77FFF28B1A368204646
:1067C0009B68BDE87040184770BD00BFF8B515461E
:1067D00001EB810442684FEA630E05EB850706462C
:1067E000144402EB070CA278E4789CF80370224171
:1067F0009CF802403C4104EA63049CF804304EFAE1
:1068000003F3E4B21A40D2B2FFF752FB30462246FD
:106810002946FFF74DFB0120F8BD00BF2DE9F04FE1
:106820000D46044611461A462DED028B89B008EE3E
:10683000105A9DF860509DF8509001959DF8645055
:106840009DF8586002959DF868509DF854A00395F6
:106850009DF86C50BDF97CB004959DF87050BDF961
:10686000783005959DF874509DF85C700695BDF9DB
:106870008450BDF9808000960795BDF98860BDF908
:106880008C50FFF7A3FF494681465B46524620469F
:10689000FFF79CFF09EA000943463A465FFA89F987
:1068A00000992046FFF792FF00EA0907079B204660
:1068B000DDE90112FFF78AFF074033462046DDE994
:1068C0000312FFF783FF2B4600EA07062046DDE9A7
:1068D0000512FFF77BFFA36806402046D3F89C30E3
:1068E000984718EE101A02462046FFF7E1FA2046B4
:1068F000FFF7E2FE304009B0BDEC028BBDE8F08F3F
:1069000010B502EB820301EB8101D0E90042114492
:106910001A4448788B78205C20EA030053789278F8
:10692000E35C13405840FFF715FBBDE81040FFF74C
:106930001BBB00BFF8B504461F4615469DF818203E
:106940000E46FFF7B5FA3A4629462046FFF7D8FF2C
:10695000294602462046FFF7ABFA31462046BDE8FD
:10696000F840FFF7D9BA00BF10B50468207841B1EC
:10697000012303F1010CE25C5FFA8CF35040994271
:10698000F7D2FFF7E7FABDE81040FFF7EDBA00BF16
:1069900008B501EB8103D0E9002119444B788878D0
:1069A000D35C23EA0000FFF7D5FABDE80840FFF703
:1069B000DFBA00BF10B5D0E9004201EB81012346E8
:1069C00004F10C0002EB010C13F8072F13F8011F60
:1069D000834282EA0102F9D1637BA17B03F07F034A
:1069E000207C01F03F019CF802C04B40E17B20EA93
:1069F0000C005A4001F03F035A40D2B25040FFF71A
:106A0000A9FABDE81040FFF7AFBA00BF08B5FFF71D
:106A100021FA003818BF012008BD00BF836810B5F7
:106A200082B0D3F898300446019198470346204637
:106A300001991C46FFF70EFA201AB0FA80F04009BF
:106A400002B010BD08B5FFF705FA003818BF0120E5
:106A500008BD00BF08B5FFF7FDF9B0FA80F04009A6
:106A600008BD00BF032908B502D8044A505C08BD20
:106A7000034AFFF737FB002008BD00BFF0030020EA
:106A80003006002000000000012970B508D002295E
:106A90000DD049B1124AFFF725FB9FED0F0B70BDDA
:106AA0001146FFF7D7F990B9B7EE000B70BD054658
:106AB0001E461146FFF7CEF9044631462846FFF739
:106AC000C9F9002CF0D010B1B1EE000B70BDB0EEE2
:106AD000000B70BDAFF3008000000000000000005C
:106AE000BC1A00200000000010B51C462DED068BDE
:106AF000B0EE41ABB0EE429BD2B1012A9FED0E8BBE
:106B00009FED0F7B08FE078B20EE080B03F020F9AA
:106B100020802AEE080B03F01BF9089B29EE080BD6
:106B2000188003F015F9099B1880BDEC068B10BD89
:106B30009FED058BE8E700BFCDCCCCCCCCCC2E4074
:106B4000CDCCCCCCCCCC3E40CDCCCCCCCCCC1E40D7
:106B5000012970B509D002290C460ED019B1104A8E
:106B60000024FFF7BFFA204670BD1146FFF772F907
:106B7000041E18BF0124204670BD05461E4611465E
:106B8000FFF768F9044631462846FFF763F9002C01
:106B9000E9D000280CBF01240224204670BD00BFAC
:106BA000BC1A002000000000B3EE097B2DE9F04F75
:106BB00030EE470B98460E46174604462DED0C8BDB
:106BC0009FED4F8BA1B0B0EE43CBB0EE449B80EE77
:106BD000087B9DF8D8309DF800119DF804219DF8A0
:106BE000F0C01193B0EE45DB9DF80831B0EE46AB36
:106BF0009DF8E850B0EE41BB9DF8E400B0EE428B4A
:106C00001B911A929DF8E0109DF8DC201993CDF8A5
:106C10005CC09DF8EC309DF8F4C09DF8F890CDF87C
:106C200060C09DF8FCA012921391159516931490D4
:106C30009FED350B37EE007BB5EE000B27EE000B1A
